:100000000C9472000C9413020C9493000C949300C3
:100010000C9493000C9493000C9493000C94930014
:100020000C9493000C9493000C9493000C94930004
:100030000C9493000C9493000C9493000C949300F4
:100040000C9493000C9493000C9493000C949300E4
:100050000C9493000C9493000C9493000C949300D4
:100060000C9493000C9493000C9493000C949300C4
:100070000C9493000C9493000C9493000C949300B4
:100080000C9493000C9493000C9493000C949300A4
:100090000C9493000C9493000C9493000C94930094
:1000A0000C9493000C9493000C9493000C94930084
:1000B0000C9493000C9493000C9493000C94930074
:1000C0000C9493000C9493000C9493000C94930064
:1000D0000C9493000C9493000C9493000C94930054
:1000E0000C94930011241FBECFEFD1E2DEBFCDBF31
:1000F00000E00CBF12E0A0E0B2E0EEEDF6E000E0C0
:100100000BBF02C007900D92A432B107D9F712E0DD
:10011000A4E2B2E001C01D92A034B107E1F70E9451
:100120002F030C946D030C94000086E69EE001976B
:10013000F1F700004098419880E388B9429AEFEFC8
:10014000F7E43197F1F700C000004298E6E6FEE0E0
:100150003197F1F700004098419888B9429AEFEF43
:10016000F7E43197F1F700C000004298E6E6FEE0C0
:100170003197F1F700004098419888B9429A8FEF83
:1001800097E40197F1F700C000004298E6E6FEE030
:100190003197F1F700004098419880E288B9429A7F
:1001A0008FEF97E40197F1F700C00000429808959F
:1001B00098B19F7098B998B1282F207F922B98B949
:1001C00040984198429AEFEFF7E43197F1F700C079
:1001D0000000429898B19F7098B998B18295807F3D
:1001E000892B88B940984198429A8FEF97E40197FC
:1001F000F1F700C00000429808950E94950086E63D
:100200009EE00197F1F7000088E20E94D80081E0AB
:100210000E94D80086E00E94D8008EE00E94D8009C
:1002200080E80E94D800089598B19F7098B998B15D
:10023000282F207F922B98B9409A4198429AEFEF4D
:10024000F7E43197F1F700C00000429898B19F7031
:1002500098B998B18295807F892B88B9409A419846
:10026000429A8FEF97E40197F1F700C0000042989F
:10027000089580E80E94D8000895CF93DF93EC01A1
:100280008881882331F021960E9414018991882366
:10029000D9F7DF91CF910895823079F0833018F447
:1002A0008130C9F405C0833069F08430A1F40FC0F7
:1002B000862F81580E94D8000895862F81540E946D
:1002C000D8000895862F8D560E94D8000895862F55
:1002D0008D520E94D80008950F931F93CF93DF9300
:1002E0008A01E901882311F0662319F40E9439017B
:1002F00002C00E944C01C530D10571F4C80160E113
:1003000077E20E945903CB01C09690933502809307
:1003100034020E94140103C0C430D105B9F4C801ED
:1003200068EE73E00E945903CB0170933F02609323
:100330003E026AE070E00E945903C0969093370233
:10034000809336020E94140181E001C080E0C33036
:10035000D10511F08130B1F4C80164E670E00E946B
:100360005903CB0170933F0260933E026AE070E054
:100370000E945903C09690933902809338020E94DC
:10038000140181E0C230D10511F08130B1F42AE0CE
:1003900030E0C801B9010E945903CB0170933F02BC
:1003A00060933E02B9010E945903C09690933B02AC
:1003B00080933A020E94140181E0C130D10511F00E
:1003C000813061F4C8016AE070E00E945903C09670
:1003D00090933D0280933C020E941401C630D105E7
:1003E0001CF085E40E941401DF91CF911F910F91C1
:1003F000089587B1876F87B988B1807888B90895E3
:100400008AB18E6F8AB9589A08950E94F9010E94A4
:1004100000020895F894E9E6F0E08081826080832C
:10042000E89A789408951F920F920FB60F921124B4
:100430008F939F93AF93BF9380913002909131023D
:10044000A0913202B09133020196A11DB11D80939B
:10045000300290933102A0933202B0933302BF91E5
:10046000AF919F918F910F900FBE0F901F90189595
:10047000F8940E9405020E940A02789408955E98FA
:100480005F9808955E9A5F9A08955E985F9A0895BE
:100490005E9A5F9808955C9A5D9A08950F931F93F2
:1004A0000E943F02109230021092310210923202EA
:1004B000109233028FEF9FE7A4E081509040A0405C
:1004C000E1F700C000008091300290913102A091CC
:1004D0003202B091330280932C0290932D02A093AC
:1004E0002E02B0932F0281E061E00E944C0180E077
:1004F00092E00E943D0100912C0210912D0220916A
:100500002E0230912F0282E061E0A80125E030E068
:100510000E946C018FEF9FEFACE281509040A040B1
:10052000E1F700C0000081E00E94D8001F910F9108
:1005300008950F931F930E9442021092300210926E
:10054000310210923202109233028FEF9FE7A4E043
:1005500081509040A040E1F700C00000809130023F
:1005600090913102A0913202B09133028093240223
:1005700090932502A0932602B093270281E061E0C8
:100580000E944C018BE092E00E943D010091240208
:1005900010912502209126023091270282E061E02D
:1005A000A80125E030E00E946C018FEF9FEFACE2E4
:1005B00081509040A040E1F700C0000081E00E941F
:1005C000D8001F910F9108950F931F930E94450229
:1005D00010923002109231021092320210923302C5
:1005E0008FEF9FE7A4E081509040A040E1F700C06A
:1005F00000008091300290913102A0913202B091BE
:1006000033028093280290932902A0932A02B09388
:100610002B0281E061E00E944C0188E192E00E949F
:100620003D01009128021091290220912A02309167
:100630002B0282E061E0A80125E030E00E946C011D
:100640008FEF9FEFACE281509040A040E1F700C0F7
:10065000000081E00E94D8001F910F9108950E9430
:1006600038020E9495000E94FD000E944B020E94E9
:100670004E028FEF9FE7A6E181509040A040E1F746
:1006800000C000000E9499028FEF9FE7A6E1815011
:100690009040A040E1F700C000000E94E4028FEF0C
:1006A0009FE7A6E181509040A040E1F700C0000024
:1006B000DECFAA1BBB1B51E107C0AA1FBB1FA61799
:1006C000B70710F0A61BB70B881F991F5A95A9F7FB
:0E06D00080959095BC01CD010895F894FFCF60
:1006DE005265642050756C73657300477265656E64
:1006EE002050756C73657300426C75652050756C87
:0406FE0073657300AD
:00000001FF
